:1000000083C000009DC000009BC0000099C000009C
:1000100097C0000095C0000093C0000091C0000090
:100020008FC000008DC000008BC0000089C00000A0
:1000300087C0000085C0000083C0000081C00000B0
:100040007FC000007DC000007BC0000079C00000C0
:1000500077C0000075C0000073C0000071C00000D0
:100060006FC000006DC000000D0A0D0A00746578B5
:10007000742F68746D6C00617564696F2F6D7065A5
:100080006733000D0A436F6E74656E742D5479707A
:10009000653A20000D0A436F6E74656E742D4C65D1
:1000A0006E6774683A2000485454502F312E312026
:1000B000323030204F6B0D0A436F6E6E656374698A
:1000C0006F6E3A20636C6F736500485454502F3143
:1000D0002E3120343034204E6F7420466F756E649C
:1000E0000D0A436F6E6E656374696F6E3A20636CC0
:1000F0006F73650D0A0D0A46696C65206E6F74207A
:10010000666F756E642E000011241FBECFEFD8E01D
:10011000DEBFCDBF11E0A0E0B1E0E6E8FFE102C044
:1001200005900D92A236B107D9F714E0A2E6B1E02E
:1001300001C01D92AA33B107E1F732D60C94C10F6A
:100140005FCF982F80538A3050F08153863020F053
:10015000892F8154863010F4865F089580E00895D9
:10016000FB01982F92959F709A3010F4905D01C01A
:10017000995A90838F708A3010F4805D01C0895A3B
:1001800081830895459A0895FC018091AA02808395
:100190008091AB0281838091AC0282838091AD0219
:1001A00083838091AE0284838091AF02858308951A
:1001B00088275E985E9A4D9980685E985E9A4D9900
:1001C00080645E985E9A4D9980625E985E9A4D99C1
:1001D00080615E985E9A4D9988605E985E9A4D99AE
:1001E00084605E985E9A4D9982605E985E9A4D99A1
:1001F00081605E9808958091B8029091B90201974C
:100200009093B9028093B802D3CF0F931F93082F16
:100210001AEFCEDF801721F01150D9F781E001C02D
:1002200080E01F910F9108955E985F9887FD5F9A17
:100230005E9A5E985F9886FD5F9A5E9A5E985F9878
:1002400085FD5F9A5E9A5E985F9884FD5F9A5E9ADC
:100250005E985F9883FD5F9A5E9A5E985F9882FDD4
:100260005F9A5E9A5E985F9881FD5F9A5E9A5E984B
:100270005F9880FD5F9A5E9A5E9808955E985F9A97
:100280005E9A5E985E9A5E985E9A5E985E9A5E98B6
:100290005E9A5E985E9A5E985E9A5E985E9A5E98A6
:1002A0000895EF92FF92CF93DF93E82EE7017E014E
:1002B000F92EE70102C0E2DF21971C161D06DCF3D0
:1002C000DF91CF91FF90EF9008958091B8029091C7
:1002D000B9020396E6DF209A289AD0CF209A289A6E
:1002E000CDDF209A2898CACFFC01408351836283D6
:1002F0007383148215820895EF92FF92CF93DF9358
:100300007ADFC82FD0E077DF382F20E0C22BD32B45
:10031000CE01DF91CF91FF90EF900895AF92BF9201
:10032000CF92DF92EF92FF920F931F9364DFA82E7C
:10033000BB24CC24DD245FDFE82E5DDFFF2400E05A
:1003400010E0102F0F2DFE2CEE2490E0A0E0B0E086
:10035000DC0199278827E82AF92A0A2B1B2BEA288F
:10036000FB280C291D2947DF90E0A0E0B0E0582FC2
:100370004427332722272E293F29402B512BB9010F
:10038000CA011F910F91FF90EF90DF90CF90BF9027
:10039000AF900895EF92FF920F931F937B018C0112
:1003A0009DDF80913504882339F459E0EE0CFF1C61
:1003B000001F111F5A95D1F781E536DF812F34DFF9
:1003C000802F32DF8F2D30DF8E2D2EDF57DF56DF6F
:1003D00055DFEEDE80E092E09093B9028093B802A0
:1003E0001AEF0AC08EEF11DF882359F086EF9BE1E8
:1003F0000197F1F700C000001150A0F766DF81E01F
:1004000001C080E01F910F91FF90EF900895CF936E
:10041000DF93E0912004F091210414822581269538
:100420002F5F2F77822F880F858330E08091220401
:1004300090E028173907C9F515826091270470915B
:1004400028048091290490912A042091230430915A
:1004500024044091250450912604620F731F841FC9
:10046000951F2081318142815381E7E05695479560
:1004700037952795EA95D1F7620F731F841F951F53
:1004800089DF882391F4C0912004D09121048881D0
:100490009981880F991F880F991F917002DF3EDFA5
:1004A000688379838A839B8310DFDF91CF910895DE
:1004B000EF92FF920F931F93FC019093210480937E
:1004C0002004E0902B04F0902C0400912D04109156
:1004D0002E04209127043091280440912904509142
:1004E0002A04E20EF31E041F151F85818695E80E6F
:1004F000F11C011D111D6081718182819381625007
:100500007040804090402091220430E040E050E074
:100510000E94320FE60EF71E081F191FC801B7010F
:1005200039DF1F910F91FF90EF900895EF92FF92A6
:100530000F931F93CF93DF93EC019093210480934B
:100540002004E0902B04F0902C0400912D041091D5
:100550002E048091270490912804A0912904B09141
:100560002A04E80EF91E0A1F1B1F8D818695E80ECE
:10057000F11C011D111D688179818A819B81625066
:100580007040804090402091220430E040E050E0F4
:100590000E94320FE60EF71E081F191FC801B7018F
:1005A000F9DEE82E0C818D81182F117003C023DE37
:1005B0000150104001151105D1F78E2DCDB7DEB7D2
:1005C000E6E00C949B0F8FE88A95F1F70000089500
:1005D000CF93DF93EC01FE0121968491882319F0DB
:1005E0000E940C0FF8CFDF91CF910895A2E0B0E008
:1005F000ECEFF2E00C94820F182F892F6A83798335
:100600000E940C0F812F0E940C0F7981872F0E946E
:100610000C0F6A81862F0E940C0F2296E3E00C9447
:100620009E0F45980E940C0F459A0895A1E0B0E0F6
:10063000ECE1F3E00C94810F8C0108C0F80181918A
:100640008F0169830E940C0F698161506623B1F7A5
:100650002196E4E00C949D0FA2E0B0E0E2E3F3E029
:100660000C94820F182F459882E269837A830E9446
:100670000C0F812F0E940C0F6981862F0E940C0F96
:100680007A81872F0E940C0F459A2296E3E00C9402
:100690009E0F459A8CECC5DF60915F0170916001FF
:1006A00083E56034780719F06250704002C06EEF45
:1006B0007FE586E0D1DF81E080931F0408950F93EA
:1006C0001F93162F072F2091680130916901280F81
:1006D000391F80E9B901C0DF459882E30E940C0F01
:1006E000802F0E940C0F812F0E940C0F459A1F91A2
:1006F0000F910895BC01909369018093680188E887
:10070000ABDF45988AE20C940C0F1F93182F892FAA
:100710000E940C0F812F0E940C0F1F910895CF9300
:10072000DF93EC018AEA92E066E080DFCE01EDDF44
:10073000DF91CF910895A1E0B0E0E1EAF3E00C94FD
:100740007F0F8C017B0180E095E44983DEDFC801E7
:10075000DCDF80E090E0D9DF80E090E4D6DF80E469
:100760000E940C0F4981842F0E940C0F80E090E0C2
:10077000CCDF87E591E064E059DFC70164E056DF34
:100780002196E6E00C949B0F0F931F93CF93DF937A
:10079000082F10E0F5E0000F111FFA95E1F7E801CE
:1007A000C659DE4F8C8D9D8DA5DFC80185589E4FA3
:1007B00066E03CDF80E098E0A8DFB80161597E4F39
:1007C00080E090E046E0B7DF89819A819EDF8B81EF
:1007D0009C819BDF69857A858B859C8507DF6D858C
:1007E0007E858F85988902DF80E50E940C0F8B8DB6
:1007F0000E940C0F80E098E088DF80E090E085DFC9
:1008000080E090E082DFDF91CF911F910F910895FA
:10081000EF92FF92CF93DF93E82EE7017E01F92E4E
:10082000E70102C00E940C0F89918823D9F7DF915C
:10083000CF91FF90EF900895CF92DF92EF92FF92C9
:100840000F931F930E94E50E90E0A0E0B0E0182FF8
:100850000027FF24EE240E94E50EC82E0E94E50E1C
:10086000D82E0E94E50E2C2D30E040E050E0A9018A
:10087000332722272E293F29402B512B682F70E048
:1008800080E090E0262B372B482B592B8D2D90E0C4
:10089000A0E0B0E0BA2FA92F982F8827282B392B5A
:1008A0004A2B5B2BB901CA011F910F91FF90EF906A
:1008B000DF90CF90089545980E940C0F0E94E50E9E
:1008C000459A08951F9310E002C01F5F7CDE8EE101
:1008D000F2DF85FF02C01A3FC1F71F9108950F9301
:1008E0001F93CF93DF938C01EB01ECDF60916801E4
:1008F00070916901600F711F8AE0AEDE8CE0BE016D
:10090000ABDE88ED8EDEDF91CF911F910F910895C0
:10091000FF920F931F93CF93DF938C01EB01FF2482
:1009200005C0F3948F2D8B3F79F04DDE8EE1C3DF50
:1009300081FDF7CF80E0B8018FDE82E0BE018CDE62
:1009400084ED6FDE80E001C08FEFCDB7DEB7E5E06C
:100950000C949C0F1F93182F03C00E94E50E11509A
:100960001123D9F71F910895A1E0B0E0EAEBF4E07C
:100970000C94810F8C0108C069830E94E50EF80178
:1009800081938F01698161506623B1F72196E4E07C
:100990000C949D0F1F930E94E50E182F0E94E50EE8
:1009A000582F40E0212F30E0242B352BC9011F9117
:1009B00008951F93182F459880E20E940C0F812FF5
:1009C0000E940C0FE7DF459A1F9108957BDF80E1BD
:1009D000F0DF382F292FC9010895459A88E8E9DF0B
:1009E0002091680130916901BC01621B730BC90140
:1009F0008FCF0F931F93CF93DF93082F10E0C2DBAD
:100A000088E8D7DF2091680130916901EC01C21BB1
:100A1000D30B2696F80135E0EE0FFF1F3A95E1F76C
:100A2000E659FE4FD78FC68F838D8B7019F081E00A
:100A3000878B128EBE016E5070408AE090E03FDEE0
:100A400088E090E064E170E04ADFC0DFBC0182E151
:100A500090E035DEBE016C5170408CE290E02FDEFC
:100A6000BE016A51704084E190E039DFAFDFBC0124
:100A70008CE290E024DEB1DFDF91CF911F910F91E6
:100A800008951F93E091BA02F091BB028081807FAC
:100A9000808312ADE12FF0E045E0EE0FFF1F4A9595
:100AA000E1F7E659FE4F8081877039F081E0838F4E
:100AB000178A812F69DE812F9CDF1F9108951F9374
:100AC0000E94E50E182F0E94E50E512F40E0282FBE
:100AD00030E0242B352BC9011F910895ACE2B0E022
:100AE000E4E7F5E00C94730F8BA79CA778A76FA39E
:100AF0002DB73EB73AA729A782E090E0A0E0B0E08A
:100B000089839A83AB83BC831D821E82CE010196AA
:100B10000DDD8DB79EB788970FB6F8949EBF0FBEB8
:100B20008DBFEDB6FEB60894E11CF11CAA24BB24CF
:100B300099248E01095F1F4FF7E24F2E512C4C0E66
:100B40005D1EEEE23E2E7DE0272E3801680153DB6C
:100B5000882EE0912004F0912104309761F0848187
:100B60002581922F9170019691708483892F8170D5
:100B70002E7F282B25838091B8029091B9021816F8
:100B800019063CF0A2DB43DC809120049091210403
:100B9000CDDCD6018D926D01A415B505C1F68F810E
:100BA000853E99F2882331F490DBEE24EA94FE2C02
:100BB0008701E9C02A892F3069F58F71815084310E
:100BC00008F0C3CF829D802D112490E08C319105D7
:100BD0000CF0BBCFF701E80FF91F888580838A8569
:100BE00081838C8582838E858383888984838D89A4
:100BF00085838F898683898D87838B8D80878D8D73
:100C000081878F8D82878BA183878DA1848799248B
:100C100093949BCF992069F5F70190E001C0982F3C
:100C2000D3013D913D013193892F8F5F303219F00F
:100C30008830A9F798E0F701E80FF11D319730826D
:100C40000CC0F801E90FF11D3081F701E80FF11D2B
:100C500030838F5F303219F09F5F9B3090F3F70144
:100C6000E80FF11D31971082F70180818E3209F46F
:100C70006CCFFFEFAF16FFEFBF06F1F0F7014BA50A
:100C80003CA5842F932FDC018191982F91569A31A6
:100C900008F480529D91392F31563A3108F4905220
:100CA000891719F4882381F707C0D7011C9208948B
:100CB000A11CB11C992449CFEAA0FF2400E010E058
:100CC000102F0F2DFE2CEE248B8D90E0A0E0B0E0D5
:100CD000DC0199278827E82AF92A0A2B1B2B89A1EE
:100CE00090E0A0E0B0E0E82AF92A0A2B1B2B8C8DBB
:100CF00090E0A0E0B0E0B82FAA2799278827E82A3B
:100D0000F92A0A2B1B2BEFA1F8A53097D9F18CA15A
:100D100090E0A0E0B0E0BA2FA92F982F88274DA12E
:100D200050E060E070E0BA0155274427842B952BF2
:100D3000A62BB72B4BA150E060E070E0842B952BE5
:100D4000A62BB72B4EA150E060E070E0742F662711
:100D500055274427842B952BA62BB72B24FF05C0A2
:100D60002FEF3FEF4FEF5FEF03C020E030E0A9012E
:100D7000822B932BA42BB52BEFA1F8A58083918315
:100D8000A283B383A2DAB701C80129A53AA50FB699
:100D9000F8943EBF0FBE2DBFAC96E2E10C948F0FCE
:100DA000A9E1B0E0E6EDF6E00C94730F50E8752E83
:100DB00043E0342E3FE0632E2EEF822E9FE2492E39
:100DC00094E0592E5298F89470926100109261004C
:100DD0003092B0006092B1008092B30000E05E9863
:100DE0005F9A8AB1806C8AB95598209A289A8AE0CD
:100DF00090E057DA86EF9BE10197F1F700C0000021
:100E0000209A2898A5E6B1E01197F1F700C00000FC
:100E100080E40ADA80E008DA80E006DA80E004DACA
:100E200080E002DA85E900DA81E0EFD9882339F041
:100E3000209A289A0A3009F456C00F5FD0CF4EDAB4
:100E400088E4F2D980E0F0D980E0EED981E0ECD9F5
:100E50008AEAEAD987E8E8D986E090E022DA3EDA41
:100E600087E7E2D980E0E0D980E0DED980E0DCD914
:100E700080E0DAD983E090E014DA30DA89E6D4D978
:100E800080E4D2D980E0D0D980E0CED980E0CCD93E
:100E9000F5D980E0BAD9882321F0043620F50F5F18
:100EA000DECF1CDA80E5C0D980E0BED980E0BCD9B5
:100EB00082E0BAD980E0B8D981E0B6D983E090E089
:100EC000F0D90CDA8AE7B0D987E090E0EAD970D996
:100ED00086FF04C081E08093350402C0109235047F
:100EE00083E090E0DED9209A289A1092270410928D
:100EF00028041092290410922A0410922F041092B0
:100F00003004109231041092320410923304109283
:100F1000340450922104409220046091270470917F
:100F200028048091290490912A0434DA882309F056
:100F300073C08BE090E0B5D9DFD95DD9A82EDCD99C
:100F40006C0159D9B82ED8D98DE090E0AAD9E6D94C
:100F5000E5D96D8B7E8B8F8B988F8AE290E0A1D93B
:100F6000DDD97B018C01DAD96233B0E27B07B0E2D4
:100F70008B07B0E29B0749F4E6E4EE16E1E4FE06D7
:100F8000E4E50E07E3E31E0721F180912704909129
:100F90002804A0912904B0912A040097A105B10565
:100FA00011F093D939C08CE691E07BD9B7D97B0198
:100FB0008C016093270470932804809329049093F4
:100FC0002A0483D9E114F1040105110509F0A5CF24
:100FD00023C07BD9760100E010E06B2D70E080E04B
:100FE00090E02D893E894F89588D3CD76E0D7F1D2D
:100FF000801F911F60932B0470932C0480932D0409
:1010000090932E04A0922204E0922304F0922404F0
:101010000093250410932604789487B117B842985A
:101020003C9887B18C6087B93D9A459ACCDA86E1C5
:1010300064E372E111DB86E1BCDCF2E184339F07FB
:1010400009F0C0CE8AECEDDABEDABDDA8EE660E0F9
:101050007BEE02DB84E060E473E5FEDA8AE462E4BE
:1010600072E0FADA86E06EEF7FE5F6DA84E6A1DC7C
:10107000909363018093620182E69BDC909365010B
:101080008093640180E695DC90936701809366010C
:1010900088EEC7DA88EEC5DA10921F048AE10BDC0D
:1010A000882309F4DAC360915F01709160018AE8D6
:1010B000D3DA45988CE2B0D66DDC909360018093D2
:1010C0005F0168DC8C0166DC87FFC1C363DC08302C
:1010D000110508F4BCC386E03DDC8AEA92E066E0D4
:1010E00043DC73D6883009F0B2C36FD6863009F07E
:1010F0004EC0E5DCE4DC8C01E2DCE1DC813009F0AF
:10110000A6C3CE01019660E12FDC10923904109243
:10111000380441E013C0498F58D6209138043091EB
:101120003904F901E95AFE4F9081498D891340E055
:101130002F5F3F4F30933904209338048091380457
:10114000909139048430910530F3442309F47FC32E
:10115000A0DA80E090E0CEDA86E098E0E0DA81E0A4
:1011600090E0D3DAC801D1DA84E096E0CEDA82E00A
:1011700090E0CBDA82E691E066E058DA87E591E02C
:1011800064E054DACE0101966AE050DA8FC01DD6D1
:10119000853409F05CC319D692DC909337048093B0
:1011A000360485E0D7DB11D6C82E89DC80EB92E0CF
:1011B00064E0DADB0BE511E087E5E82E81E0F82E4C
:1011C000D801BD908D0101D6F70191917F0189175A
:1011D00031F09B2D909598239F3F09F038C3F1E0A3
:1011E0000F351F0769F72C2D213021F0263009F02B
:1011F0002CC35EC0C0903604D0903704E6D5082FCB
:10120000E4D55DDC083009F022C30E94C2008AE800
:10121000D0DB5C0180E090E06DDA80E098E07FDA7E
:10122000809136049091370460EB72E041E083DAFC
:1012300080E090E06ADA80E090E067DA0E94C20025
:1012400088E8B7DB7C018601085110403BDB86E172
:1012500060E473E501DA88E16EEF7FE5FDD98AE0AD
:10126000B501FAD98EE0B701F7D98CE0B801F4D90D
:101270008CEDD7D9B701600F711F88E8EDD909DA75
:1012800088E090E064E170E02ADBA0DB8C01B6012D
:10129000645170408CE190E022DB82E190E0B80183
:1012A0000EDA94DBBC018EE190E009DA96DBCFC266
:1012B00006DC9093B5028093B40201DC9093B702F0
:1012C0008093B602C0903604D09037044CEE5FEFA6
:1012D000C40ED51ED0923704C0923604E090B402FA
:1012E000F090B50201E0EAE6F1E09C01B096808161
:1012F0008770D9F08181928182179307B1F483813D
:1013000094818E159F0589F445815681678170858A
:101310008091B0029091B102A091B202B091B3025B
:10132000481759076A077B0721F00F5F0A30F1F66B
:1013300000E0112707FD10957FDA3B014C017CDAB4
:101340001B012C0142D5B82EB694B6945CEFB522A1
:101350003CD5A82EB4DBB3DBB2DBBCEEEB2EEB0C42
:1013600002C033D5EA94EE20E1F7A1FEADC0C090F3
:10137000B602D090B70280E5C816D10409F028C2A1
:1013800080E090E0B82EB3940196FC01A5E0EE0F4A
:10139000FF1FAA95E1F7E659FE4F20812770B9F4A7
:1013A00080E2DF011D928A95E9F74B2D50E0415014
:1013B00050406CE672E0469F9001479F300D569F6B
:1013C000300D112420503C4F358F248F04C08930BC
:1013D0009105C1F6BB244B2D50E02BE330E0429F3A
:1013E000F001439FF00D529FF00D1124E454FD4F86
:1013F000F093BB02E093BA028BE3DF011D928A9562
:10140000E9F78081807F81608083B2AEBB2009F4E0
:10141000DFC1EB2CFF24E7FCF094F5E0EE0CFF1CA1
:10142000FA95E1F7C70185589E4F0E94C400EAE68D
:10143000F1E0EE0EFF1ED7011296DC92CE921197CC
:101440008091B4029091B50214969C938E93139759
:101450008091B0029091B102A091B202B091B3021A
:10146000F70185839683A783B0870894611C711C5C
:10147000811C911CD7011D966D927D928D929C923C
:1014800050978AEA9AEAAAEABAEA81879287A387FA
:10149000B4878081887F81608083178A118E108E47
:1014A000F8D882E1D7015B968C938B2D6DD9F7012B
:1014B00081859285A385B4850196A11DB11D818783
:1014C0009287A387B487BEC17801E5E0EE0CFF1CCC
:1014D000EA95E1F7C70185589E4F0E94C4000115A7
:1014E000110509F475C1A2FE0CC0802F90E0C9DA85
:1014F000F701E659FE4F84E1838F8081887F8083E6
:1015000079C1A4FE31C0F701E659FE4F268D378D13
:101510002653304061857285838594852115310578
:1015200039F49B01AC012F5F3F4F4F4F5F4F06C017
:1015300040E050E0260F371F481F591FC101821B92
:10154000930B97FD11C0009779F4F80175E0EE0F49
:10155000FF1F7A95E1F7E659FE4F118E108E178A1C
:101560002187328743875487A0FE1CC0F80165E0BD
:10157000EE0FFF1F6A95E1F7E659FE4F85859685C8
:10158000A785B0890196A11DB11D85879687A7877C
:10159000B08B81E1838F8081887F8083802F90E072
:1015A00070DA28C1CB18D108C114D10409F44DC197
:1015B000F80155E0EE0FFF1F5A95E1F7E659FE4F8F
:1015C00085859685A785B08986159705A805B905EF
:1015D00009F03BC1C601A0E0B0E0860D971DA81D33
:1015E000B91D85879687A787B08BB02E10921E04F1
:1015F000202F30E08BE390E0289FF001299FF00D31
:10160000389FF00D1124E454FD4FF093BB02E0939A
:10161000BA0212A611A6AAC0D8D3E091BA02F091DC
:10162000BB029081292F2F7030E02430310509F45E
:1016300043C0253031055CF422303105D9F0233028
:101640003105A4F52130310509F08FC00DC02730D8
:10165000310509F488C02F30310509F480C02530E8
:10166000310509F082C074C0803209F07EC0907FDD
:10167000926072C09181DF01A90FB11D12968C9307
:101680001297292F2F5F2183263209F4918380320C
:1016900009F06BC08081807F836080838181DF015E
:1016A000A80FB11D11961C92119757C08A3009F0EE
:1016B0005CC0907F94604AC08A3009F043C0907F3C
:1016C00097609083CF01029622812F3211F4CF01CF
:1016D0000396DC012C91243689F411962C911197F4
:1016E0002F3261F480A5816080A781AD887F25E0DD
:1016F00030E034A723A7846081AF37C0BF016F5C9F
:101700007F4FECD9AB01BC01E091BA02F091BB0272
:1017100015AA16AA17AA10AE77FF04C081AD85607E
:101720008D7F0BC0CF018B960E947401E091BA02AD
:10173000F091BB0281AD84608C7F81AF80A58E7FEC
:1017400080A713C08D3089F0907F956090830DC085
:101750008A3059F4907F94609083118206C08B2D5B
:1017600090E08FD902C0EE24FF246701760108942F
:10177000E108F108C114D10409F04ECFF80145E0A9
:10178000EE0FFF1F4A95E1F7E659FE4F8789882340
:10179000E1F081859285A385B48580937301909350
:1017A0007401A0937501B093760185859685A78510
:1017B000B0898093770190937801A0937901B093D9
:1017C0007A0180E18093850113C080E1838F12C08C
:1017D00010927701109278011092790110927A019B
:1017E00084E08093850180916A01887F80936A01FB
:1017F00000E010E00E9449030115110501F58091F8
:10180000B0029091B102A091B202B091B302809364
:101810006F0190937001A0937101B0937201809158
:10182000B4029091B50290936E0180936D01809106
:10183000B6029091B70290936C0180936B01802F58
:101840000E94C403802FD5D802C00E944903809112
:101850001F04882311F40E94490335EE432E32E021
:10186000532E222433247E010894E11CF11C8BE3C7
:1018700090E0289EA001299E500D389E500D112405
:101880008A0104541D4F1093BB020093BA02D80181
:101890008C918F7090E08730910529F08F30910501
:1018A00009F031C21EC2F2018189E82FF0E025E083
:1018B000EE0FFF1F2A95E1F7E659FE4F978999230E
:1018C00009F030C2D80198962C919897D9969C919E
:1018D000D99720FFFEC091FF05C0DA968C91DA9768
:1018E00090E01EC292FF1EC2F80182ADE82FF0E028
:1018F00095E0EE0FFF1F9A95E1F7E659FE4F28E1BC
:10190000238F0E94C40380E091E00E940804B2E0AB
:10191000CB2ED12CC00ED11EC60167E271E046E08D
:1019200050E021D30097D1F419821A821B82A8E0DB
:10193000CA2ED12CC00ED11ED80118968C910E94AF
:10194000A100B82EF60181810E94A100B294F0EFAF
:10195000BF22B80EEB2DF0E0808157C0C6016EE2C9
:1019600071E046E050E0FFD2009731F5D8011896BB
:101970008C910E94A100882EEAE0CE2ED12CC00EC0
:10198000D11EF80181850E94A100A82ED8011A96C7
:101990008C910E94A100B82EF60181810E94A100C5
:1019A000829470EF87228A0CE82DF0E0B29460EF09
:1019B000B622B80EB08284C0C60165E371E046E08D
:1019C00050E0D1D2009731F519821A821B8258E07B
:1019D000C52ED12CC00ED11ED80118968C910E9414
:1019E000A100B82EF60181810E94A100B29440EFBF
:1019F000B422B80EEB2DF0E0C0808181B7010E94C7
:101A0000B000C7010E9408048C2DB7010E94B000ED
:101A1000C70154C0C6016CE371E046E050E0A3D2B8
:101A2000009709F046C0D80118968C910E94A10039
:101A3000882EF80181850E94A100A82ED8011A964F
:101A40008C910E94A100682E3CE0C32ED12CC00EC8
:101A5000D11EF80183850E94A100782ED8011C9622
:101A60008C910E94A100B82EF60181810E94A100F4
:101A7000629420EF62226A8A198A7C8A1B8A2989E9
:101A80003A894B895C89240F351F280F311D8294B8
:101A900090EF89228A0CE82DF0E04B2D50E084E095
:101AA000440F551F8A95E1F7240F351F318320839A
:101AB00007C083E491E00E940804C6010E94080464
:101AC000D801DA968C910E94F904F80181AD8B7FE0
:101AD00005C191FD15C190FF14C028E1238F0E941C
:101AE000C4038AEC90E00E94E802E091BA02F0910F
:101AF000BB0282AD0E94F904E091BA02F091BB02F0
:101B0000ECC092FF9FC09A0122543D4FD9010D9025
:101B10000020E9F76D010894C108D108C21AB8E1A4
:101B2000B38F0E94C40387EA90E00E94E802E0912C
:101B3000BA02F091BB0281A992A9A3A9B4A98F3FCF
:101B4000EFEF9E07EFEFAE07EFEFBE0709F448C0D7
:101B500084E990E00E94E802E091BA02F091BB02B1
:101B600081A892A8A3A8B4A81AE0612E712C00E065
:101B700020E03AEC4AE95BE321C08F5F821A930AC6
:101B8000A40AB50A281539054A055B05B0F30023F8
:101B900011F4882331F0F701E00FF11D805D80839F
:101BA0000F5FCA01B9012AE030E040E050E079D18E
:101BB0000894610871086114710411F080E0E2CFAB
:101BC000F701E00FF11D1082D7010D900020E9F719
:101BD000BD01615070406E197F09C7010E94160354
:101BE00083E890E00E94E8028091BA029091BB02E3
:101BF000CC2039F0CA94FC01EC0DF11D22812E326B
:101C0000B9F78C0D911D039663E571E0A3D10097A0
:101C100019F487E790E002C08DE690E00E94E802A8
:101C200088E690E00E94E802E091BA02F091BB02DF
:101C300082AD0E94F904E091BA02F091BB0281AD3D
:101C40008B7F4DC00E94C4038091BA029091BB0269
:101C50008B960E945802E091BA02F091BB0281A9D2
:101C600092A9A3A9B4A98130E2E09E07E0E0AE0703
:101C7000E0E0BE0720F080E092E0A0E0B0E06C0180
:101C800000E010E005C00E94FB00C6D00F5F1F4FB0
:101C90000C151D05C0F30E9465010E940702E0912A
:101CA000BA02F091BB0282AD0E94F904E091BA023F
:101CB000F091BB02960140E050E081A992A9A3A94E
:101CC000B4A9821B930BA40BB50B81AB92ABA3AB56
:101CD000B4AB0097A105B10529F581AD826081AF54
:101CE00021C0D2015196EC915197F0E0B5E0EE0F92
:101CF000FF1FBA95E1F7E659FE4F8789882391F4D3
:101D00000E9441050FC0F201808191819C012F5FEB
:101D10003F4F31832083F7E281319F0718F0C101E3
:101D20000E9441050894211C311C2BE330E0420E37
:101D3000531E36E02316310409F099CDB89BAAC989
:101D4000B89A01E811E0CC24DD24BB24B3947601D9
:101D5000A5E0EE0CFF1CAA95E1F74AE651E0E40E7F
:101D6000F51ED7018C91877031F1F8018181928144
:101D700001969283818380818823E9F08F5F80833D
:101D80008333C8F067817085858196810E948804BD
:101D9000D801BC9213968C911397982F9F5F13963E
:101DA0009C931397893238F0C6010E944105F701D0
:101DB0008081887F80830894C11CD11C005E1F4FE6
:101DC000FAE0CF16D10419F665C928B12B7F322F5E
:101DD0003460882728B938B928B93499806838B967
:101DE00028B93499806438B928B93499806238B9EF
:101DF00028B93499806138B928B93499886038B9DC
:101E000028B93499846038B928B93499826038B9CE
:101E100028B934998160089528B12B7F422F4860FA
:101E200028B987FD48B9429A28B986FD48B9429A2F
:101E300028B985FD48B9429A28B984FD48B9429A23
:101E400028B983FD48B9429A28B982FD48B9429A17
:101E500028B981FD48B9429A28B980FD48B9429A0B
:101E600028B90895629FD001739FF001829FE00D11
:101E7000F11D649FE00DF11D929FF00D839FF00D09
:101E8000749FF00D659FF00D9927729FB00DE11DB5
:101E9000F91F639FB00DE11DF91FBD01CF01112492
:101EA0000895A1E21A2EAA1BBB1BFD010DC0AA1F9B
:101EB000BB1FEE1FFF1FA217B307E407F50720F0B3
:101EC000A21BB30BE40BF50B661F771F881F991F2E
:101ED0001A9469F760957095809590959B01AC0177
:101EE000BD01CF0108952F923F924F925F926F9262
:101EF0007F928F929F92AF92BF92CF92DF92EF929A
:101F0000FF920F931F93CF93DF93CDB7DEB7CA1B1A
:101F1000DB0B0FB6F894DEBF0FBECDBF09942A8845
:101F2000398848885F846E847D848C849B84AA84ED
:101F3000B984C884DF80EE80FD800C811B81AA817A
:101F4000B981CE0FD11D0FB6F894DEBF0FBECDBF45
:101F5000ED010895FB01DC018D91019080190110C4
:101F6000D9F3990B0895FB01DC014150504030F04A
:101F70008D910190801919F40020B9F7881B990BF5
:061F80000895F894FFCF64
:101F8600485454502F312E3120323030204F6B0DB3
:101F96000A436F6E6E656374696F6E3A20636C6F89
:101FA60073650D0A0D0A002F642F72313F002F64EE
:101FB6002F77313F002F642F72323F002F642F7727
:101FC600323F0048656C6C6F2C20576F726C642131
:101FD6000D0A006D703300C0A8008EFFFFFF0040A1
:021FE6005300A6
:00000001FF
